{
  "_format": "hh-sol-artifact-1",
  "contractName": "ProofOfCare",
  "sourceName": "contracts/ProofOfCare.sol",
  "abi": [
    {
      "inputs": [],
      "stateMutability": "nonpayable",
      "type": "constructor"
    },
    {
      "inputs": [],
      "name": "InvalidInitialization",
      "type": "error"
    },
    {
      "inputs": [],
      "name": "NotInitializing",
      "type": "error"
    },
    {
      "inputs": [
        {
          "internalType": "address",
          "name": "owner",
          "type": "address"
        }
      ],
      "name": "OwnableInvalidOwner",
      "type": "error"
    },
    {
      "inputs": [
        {
          "internalType": "address",
          "name": "account",
          "type": "address"
        }
      ],
      "name": "OwnableUnauthorizedAccount",
      "type": "error"
    },
    {
      "anonymous": false,
      "inputs": [
        {
          "indexed": false,
          "internalType": "uint64",
          "name": "version",
          "type": "uint64"
        }
      ],
      "name": "Initialized",
      "type": "event"
    },
    {
      "anonymous": false,
      "inputs": [
        {
          "indexed": true,
          "internalType": "address",
          "name": "previousOwner",
          "type": "address"
        },
        {
          "indexed": true,
          "internalType": "address",
          "name": "newOwner",
          "type": "address"
        }
      ],
      "name": "OwnershipTransferred",
      "type": "event"
    },
    {
      "anonymous": false,
      "inputs": [
        {
          "indexed": true,
          "internalType": "bytes32",
          "name": "childDIDHash",
          "type": "bytes32"
        },
        {
          "indexed": false,
          "internalType": "bytes32",
          "name": "recordHash",
          "type": "bytes32"
        },
        {
          "indexed": false,
          "internalType": "uint256",
          "name": "timestamp",
          "type": "uint256"
        }
      ],
      "name": "ProofStored",
      "type": "event"
    },
    {
      "inputs": [
        {
          "internalType": "bytes32",
          "name": "childDIDHash",
          "type": "bytes32"
        }
      ],
      "name": "getProofs",
      "outputs": [
        {
          "components": [
            {
              "internalType": "bytes32",
              "name": "recordHash",
              "type": "bytes32"
            },
            {
              "internalType": "string",
              "name": "campZone",
              "type": "string"
            },
            {
              "internalType": "string",
              "name": "eventType",
              "type": "string"
            },
            {
              "internalType": "uint256",
              "name": "timestamp",
              "type": "uint256"
            },
            {
              "internalType": "bytes32",
              "name": "chwDIDHash",
              "type": "bytes32"
            }
          ],
          "internalType": "struct ProofOfCare.ProofRecord[]",
          "name": "",
          "type": "tuple[]"
        }
      ],
      "stateMutability": "view",
      "type": "function"
    },
    {
      "inputs": [
        {
          "internalType": "address",
          "name": "_registryAddress",
          "type": "address"
        }
      ],
      "name": "initialize",
      "outputs": [],
      "stateMutability": "nonpayable",
      "type": "function"
    },
    {
      "inputs": [],
      "name": "owner",
      "outputs": [
        {
          "internalType": "address",
          "name": "",
          "type": "address"
        }
      ],
      "stateMutability": "view",
      "type": "function"
    },
    {
      "inputs": [],
      "name": "registry",
      "outputs": [
        {
          "internalType": "contract IBitheatRegistry",
          "name": "",
          "type": "address"
        }
      ],
      "stateMutability": "view",
      "type": "function"
    },
    {
      "inputs": [],
      "name": "renounceOwnership",
      "outputs": [],
      "stateMutability": "nonpayable",
      "type": "function"
    },
    {
      "inputs": [
        {
          "internalType": "bytes32",
          "name": "childDIDHash",
          "type": "bytes32"
        },
        {
          "internalType": "bytes32",
          "name": "recordHash",
          "type": "bytes32"
        },
        {
          "internalType": "string",
          "name": "campZone",
          "type": "string"
        },
        {
          "internalType": "string",
          "name": "eventType",
          "type": "string"
        },
        {
          "internalType": "bytes32",
          "name": "chwDIDHash",
          "type": "bytes32"
        }
      ],
      "name": "storeProof",
      "outputs": [],
      "stateMutability": "nonpayable",
      "type": "function"
    },
    {
      "inputs": [
        {
          "internalType": "address",
          "name": "newOwner",
          "type": "address"
        }
      ],
      "name": "transferOwnership",
      "outputs": [],
      "stateMutability": "nonpayable",
      "type": "function"
    },
    {
      "inputs": [
        {
          "internalType": "address",
          "name": "_newRegistry",
          "type": "address"
        }
      ],
      "name": "updateRegistry",
      "outputs": [],
      "stateMutability": "nonpayable",
      "type": "function"
    },
    {
      "inputs": [
        {
          "internalType": "bytes32",
          "name": "childDIDHash",
          "type": "bytes32"
        },
        {
          "internalType": "bytes32",
          "name": "recordHash",
          "type": "bytes32"
        }
      ],
      "name": "verifyProof",
      "outputs": [
        {
          "internalType": "bool",
          "name": "",
          "type": "bool"
        }
      ],
      "stateMutability": "view",
      "type": "function"
    }
  ],
  "bytecode": "0x608060405234801561001057600080fd5b5061001961001e565b6100d0565b7ff0c57e16840df040f15088dc2f81fe391c3923bec73e23a9662efc9c229c6a00805468010000000000000000900460ff161561006e5760405163f92ee8a960e01b815260040160405180910390fd5b80546001600160401b03908116146100cd5780546001600160401b0319166001600160401b0390811782556040519081527fc7f505b2f371ae2175ee4913f4499e1f2633a7b5936321eed1cdaeb6115181d29060200160405180910390a15b50565b610cb3806100df6000396000f3fe608060405234801561001057600080fd5b50600436106100935760003560e01c80637fb58537116100665780637fb58537146101085780638da5cb5b14610128578063961a9ace14610158578063c4d66de81461016b578063f2fde38b1461017e57600080fd5b80631a5da6c814610098578063715018a6146100ad578063739808e5146100b55780637b103999146100dd575b600080fd5b6100ab6100a6366004610898565b610191565b005b6100ab6101bb565b6100c86100c33660046108c8565b6101cf565b60405190151581526020015b60405180910390f35b6000546100f0906001600160a01b031681565b6040516001600160a01b0390911681526020016100d4565b61011b6101163660046108ea565b61023c565b6040516100d49190610949565b7f9016d09d72d40fdae2fd8ceac6b6234c7706214fd39c1cd1e609a0528c199300546001600160a01b03166100f0565b6100ab610166366004610a37565b6103f0565b6100ab610179366004610898565b6105f6565b6100ab61018c366004610898565b61070d565b61019961074b565b600080546001600160a01b0319166001600160a01b0392909216919091179055565b6101c361074b565b6101cd60006107a6565b565b6000828152600160205260408120815b815481101561022f57838282815481106101fb576101fb610ac3565b9060005260206000209060050201600001540361021d57600192505050610236565b8061022781610ad9565b9150506101df565b5060009150505b92915050565b606060016000838152602001908152602001600020805480602002602001604051908101604052809291908181526020016000905b828210156103e557838290600052602060002090600502016040518060a0016040529081600082015481526020016001820180546102ae90610b00565b80601f01602080910402602001604051908101604052809291908181526020018280546102da90610b00565b80156103275780601f106102fc57610100808354040283529160200191610327565b820191906000526020600020905b81548152906001019060200180831161030a57829003601f168201915b5050505050815260200160028201805461034090610b00565b80601f016020809104026020016040519081016040528092919081815260200182805461036c90610b00565b80156103b95780601f1061038e576101008083540402835291602001916103b9565b820191906000526020600020905b81548152906001019060200180831161039c57829003601f168201915b505050505081526020016003820154815260200160048201548152505081526020019060010190610271565b505050509050919050565b6000546040516218df3f60e51b8152600481018390526001600160a01b039091169063031be7e090602401602060405180830381865afa158015610438573d6000803e3d6000fd5b505050506040513d601f19601f8201168201806040525081019061045c9190610b3a565b6104ad5760405162461bcd60e51b815260206004820152601d60248201527f50726f6f664f66436172653a20556e617574686f72697a65642043485700000060448201526064015b60405180910390fd5b600160008881526020019081526020016000206040518060a0016040528088815260200187878080601f016020809104026020016040519081016040528093929190818152602001838380828437600092019190915250505090825250604080516020601f88018190048102820181019092528681529181019190879087908190840183828082843760009201829052509385525050426020808501919091526040909301869052508354600181810186559482529082902083516005909202019081559082015191929091908201906105879082610bbd565b506040820151600282019061059c9082610bbd565b50606082015160038201556080909101516004909101556040805187815242602082015288917f5ae35082cc50a4bcddcaabccd4846312752f7259d4f7bdf9ac416882445a17fa910160405180910390a250505050505050565b6000610600610817565b805490915060ff600160401b820416159067ffffffffffffffff166000811580156106285750825b905060008267ffffffffffffffff1660011480156106455750303b155b905081158015610653575080155b156106715760405163f92ee8a960e01b815260040160405180910390fd5b845467ffffffffffffffff19166001178555831561069b57845460ff60401b1916600160401b1785555b6106a433610840565b600080546001600160a01b0319166001600160a01b038816179055831561070557845460ff60401b19168555604051600181527fc7f505b2f371ae2175ee4913f4499e1f2633a7b5936321eed1cdaeb6115181d29060200160405180910390a15b505050505050565b61071561074b565b6001600160a01b03811661073f57604051631e4fbdf760e01b8152600060048201526024016104a4565b610748816107a6565b50565b3361077d7f9016d09d72d40fdae2fd8ceac6b6234c7706214fd39c1cd1e609a0528c199300546001600160a01b031690565b6001600160a01b0316146101cd5760405163118cdaa760e01b81523360048201526024016104a4565b7f9016d09d72d40fdae2fd8ceac6b6234c7706214fd39c1cd1e609a0528c19930080546001600160a01b031981166001600160a01b03848116918217845560405192169182907f8be0079c531659141344cd1fd0a4f28419497f9722a3daafe3b4186f6b6457e090600090a3505050565b6000807ff0c57e16840df040f15088dc2f81fe391c3923bec73e23a9662efc9c229c6a00610236565b610848610851565b61074881610876565b61085961087e565b6101cd57604051631afcd79f60e31b815260040160405180910390fd5b610715610851565b6000610888610817565b54600160401b900460ff16919050565b6000602082840312156108aa57600080fd5b81356001600160a01b03811681146108c157600080fd5b9392505050565b600080604083850312156108db57600080fd5b50508035926020909101359150565b6000602082840312156108fc57600080fd5b5035919050565b6000815180845260005b818110156109295760208185018101518683018201520161090d565b506000602082860101526020601f19601f83011685010191505092915050565b60006020808301818452808551808352604092508286019150828160051b87010184880160005b838110156109e057603f19898403018552815160a08151855288820151818a87015261099e82870182610903565b91505087820151858203898701526109b68282610903565b60608481015190880152608093840151939096019290925250509386019390860190600101610970565b509098975050505050505050565b60008083601f840112610a0057600080fd5b50813567ffffffffffffffff811115610a1857600080fd5b602083019150836020828501011115610a3057600080fd5b9250929050565b600080600080600080600060a0888a031215610a5257600080fd5b8735965060208801359550604088013567ffffffffffffffff80821115610a7857600080fd5b610a848b838c016109ee565b909750955060608a0135915080821115610a9d57600080fd5b50610aaa8a828b016109ee565b989b979a50959894979596608090950135949350505050565b634e487b7160e01b600052603260045260246000fd5b600060018201610af957634e487b7160e01b600052601160045260246000fd5b5060010190565b600181811c90821680610b1457607f821691505b602082108103610b3457634e487b7160e01b600052602260045260246000fd5b50919050565b600060208284031215610b4c57600080fd5b815180151581146108c157600080fd5b634e487b7160e01b600052604160045260246000fd5b601f821115610bb857600081815260208120601f850160051c81016020861015610b995750805b601f850160051c820191505b8181101561070557828155600101610ba5565b505050565b815167ffffffffffffffff811115610bd757610bd7610b5c565b610beb81610be58454610b00565b84610b72565b602080601f831160018114610c205760008415610c085750858301515b600019600386901b1c1916600185901b178555610705565b600085815260208120601f198616915b82811015610c4f57888601518255948401946001909101908401610c30565b5085821015610c6d5787850151600019600388901b60f8161c191681555b5050505050600190811b0190555056fea2646970667358221220e18527467ba8e92d6a291828775dece72fead88aff209942eaa072bdf792d89d64736f6c63430008140033",
  "linkReferences": {},
  "deployedLinkReferences": {}
}